:100000000C942A001895000018950000189500001F
:10001000189500001895000018950000189500002C
:10002000189500001895000018950000189500001C
:10003000189500001895000018950000189500000C
:1000400018950000189500001895000018950000FC
:10005000189500008FE58DBFC8E3E0E24E2E88E0E2
:100060008EBFD8E0F8E05F2EA89584B7082E877F72
:1000700084BF88E1992781BD91BDEEEFF7E0A0E64E
:10008000B0E088278D933197E9F78CE089B980E05B
:1000900080BD88E18AB972E07BB90E944F03662473
:1000A0008CE00E949D030E943403A19AA09A0E94B2
:1000B0006C018AE090E00E94CA0385E0809373009F
:1000C0000E943E010E94210283E0809373000E94FF
:1000D0003E010E948A020E94B102E1E0F0E00E942B
:1000E00046030C945D00F894FFCF0E948B0186E0DC
:1000F00080937300A09AA19AA998A3E7B0E0119603
:1001000098E08E91983018F4392F992702C038E082
:100110009850881FA89808F4A89A00000000A99A8F
:1001200000000000A998000000003A9591F799237B
:1001300041F70E940C0280E080937300A09AA19A7C
:10014000A998A3E7B0E0119698E08E91983018F442
:10015000392F992702C038E09850881FA89808F4D2
:10016000A89A00000000A99A00000000A9980000C9
:1001700000003A9591F7992341F70E940C020895E7
:100180000E948B0187E080937300A09AA19AA9989E
:10019000A3E7B0E0119698E08E91983018F4392FCB
:1001A000992702C038E09850881FA89808F4A89AA8
:1001B00000000000A99A00000000A99800000000BB
:1001C0003A9591F7992341F70E940C020E94EA01A7
:1001D00080916500809366000E940C020E94EA01F3
:1001E0008091650080936A00E4E6FDE00E941703B9
:1001F000E6E6F0E0A8E0B8E00E9438050E940F03B0
:100200000E941E03E6E7FDE00E941703EAE6F0E025
:10021000A8E0B8E00E9438050E940F030E941E0368
:100220000E941E0308950E948B018EE1809373004B
:10023000A09AA19AA998A3E7B0E0119698E08E91B0
:10024000983018F4392F992702C038E09850881F49
:10025000A89808F4A89A00000000A99A00000000DD
:10026000A998000000003A9591F7992341F70E9460
:100270000C0284E690E00E94CA0308950E948B015C
:100280000E94A7010E940C020E94CB010E94EA0179
:1002900080916500809366000E940C020E94EA0132
:1002A00080916500809367000E940C020E94EA0121
:1002B0008091650080936A000E941502A6E6B0E076
:1002C0008C918F738C939091660080916700A8E663
:1002D000B0E08D939C930895A19AA09AA998A89AAA
:1002E0000000000081E08093600000916000093010
:1002F00018F011F00C948A01A99A00000000A89847
:1003000000000000A0E6B0E08C918F5F8C9310F4A9
:100310000C9475010895A19AA09AA998A89A000032
:100320000000A99A00000000A89800000000A99809
:1003300000000000A99A00000000A89A0000000038
:10034000A9980000000080E080936A000895A19AB7
:10035000A998A09AA898A09AA19AA998A3E7B0E012
:10036000119698E08E91983018F4392F992702C091
:1003700038E09850881FA89808F4A89A0000000058
:10038000A99A00000000A998000000003A9591F792
:10039000992341F70895A19AA098A89A81E08093A3
:1003A0006000009160000F3F18F011F00C94E9011B
:1003B000A8990C94DD010C94E90181E090E00E9481
:1003C000CA03A0E6B0E08C918F5F8C9310F40C947C
:1003D000D1010895A19AA998A098A89AA19AA09845
:1003E000A99898E0A5E6B0E01196983018F4392F56
:1003F000992702C038E09850A99A0000000088941C
:1004000098990894881FA998000000003A95A1F7D0
:100410008E93992351F70895A19AA09AA898A99824
:10042000A99A00000000A9980895A19AA09AA89AF4
:1004300000000000A99A00000000A9980000000038
:100440000895E8E6F0E0D190E080FF2400270E94C4
:10045000CA050E94A0052F933F934F935F93E8E650
:10046000F0E0D190E080FF2400270E94CA055F9150
:100470004F913F912F910E94F205EDE0F0E0AFE641
:10048000B0E00E948205E0E5FDE00E949B06EFE6F9
:10049000F0E00E9496050E94F205EDE0F0E0AFE684
:1004A000B0E00E948205E8E6F0E0D190E080FF2411
:1004B00000270E94CA050E94A005E4E5FDE00E9415
:1004C0008E060E94F205EDE0F0E0A1E6B0E00E94A9
:1004D0008205E1E6F0E00E949B05EFE6F0E00E9475
:1004E00096050E944006EDE0F0E0AFE6B0E00E9425
:1004F0008205E8E5FDE00E949B06EFE6F0E00E9441
:1005000096050E943106EDE0F0E0AFE6B0E00E9413
:1005100082050895E8E6F0E0D190E080FF2400270E
:100520000E94CA050E94A005ECE5FDE00E948E062F
:100530000E94F205EDE0F0E0ABE6B0E00E9482053B
:10054000E0E6FDE00E949B06EBE6F0E00E949605E7
:100550000E943106EDE0F0E0ABE6B0E00E948205DB
:100560000895EEE7F5E080E40E949D0358E0C89509
:10057000802D0E94970331965A95C9F704C007054C
:100580000720202020208FE711E00E944303E0E8AD
:10059000FDE00E942D03A8E0B8E0AF93BF93EFE623
:1005A000F0E00E9496050E94D90311E001E0BF919E
:1005B000AF910E94D204E8E0F8E0A8E0B8E00E9421
:1005C0007D050E942503E6E8FDE00E942D038FEBE8
:1005D00011E00E944303EAE8FDE00E942D03A8E039
:1005E000B8E0AF93BF93EBE6F0E00E9496050E945F
:1005F000D90311E001E0BF91AF910E94D204E8E07D
:10060000F8E0A8E0B8E00E947D050E94250380E0A4
:100610000E949703E2E9FDE00E942D030895A8E0FF
:10062000B8E08D91882311F00CD0FBCF08950E9483
:10063000C104802D11F005D0FACF08958DE001D0CE
:100640008AE05D9BFECF8CB90895A8E0B8E08D915B
:10065000882311F06CD0FBCF08950E94C104802D37
:1006600011F065D0FACF089581E067D015D080E809
:1006700064C08FE7213039F08FEB223021F08FE812
:10068000233009F08FEC810F0C949D0388EE93E0EA
:1006900081D03197D9F7089583E099277BC08AEFFD
:1006A00090E00E94CA03D79AD69AD59AD49AD29A41
:1006B000D09AD89885E090E00E94CA03DA98DF9833
:1006C000DE98DD9ADC9ADA9AEF93FF93E5E1F0E0A9
:1006D0000E94BE03FF91EF91DA9859D0DA9AEF9316
:1006E000FF93E5E1F0E00E94BE03FF91EF91DA98FD
:1006F0004ED0DA9AEF93FF93E5E1F0E00E94BE035B
:10070000FF91EF91DA9843D0DC98DA9AEF93FF9358
:10071000E5E1F0E00E94BE03FF91EF91DA9837D057
:1007200088E20BD08EE009D086E007D00895D89AF1
:10073000829505D004D02BD00895D898F9CF85950F
:1007400010F4DC9A01C0DC98859510F4DD9A01C0A4
:10075000DD98859510F4DE9A01C0DE98859510F439
:10076000DF9A01C0DF98DA9AEF93FF93E5E1F0E0BA
:100770000E94BE03FF91EF91DA9808953197F1F747
:100780000895689462F80895E89462F8089581E005
:1007900090E000C0EF93FF93EE27E82BE92B31F0B8
:1007A000EAEFF0E03197F1F70197D1F7FF91EF9180
:1007B00008958DE207FD8D938F2D881F802F881F50
:1007C0008F57082F6894F7F8802F87FF15C0809502
:1007D0008395082F80E38D938EE28D93802F815235
:1007E00028F080E38D9399279C93089544270A95D8
:1007F000802F09F196D01FC0805230F09EE49D9367
:1008000081E48D939D93EFCF4427DF92EF92FF9287
:100810000F938FE1801B11F0082F83D089D09EE2C7
:100820009D930F91FF90EF90DF9044270395003246
:1008300009F4D7CF2BD03F93E2ECF8E038E12F2D2D
:100840001E2D0D2DFF24EE24DD244427000F111F43
:10085000221FA8F42F923F920E94C104102C0E94E4
:10086000C104202C0E94C104302C0E94C104319785
:10087000410DD21CE31CF01C3F902F9001C0339619
:1008800031963A9519F73F9107D0AFCFDD0CEE1CAA
:10089000FF1C0A95D9F70895002719E058D08F93C7
:1008A000802B11F0039501C08F911A95B9F7802F15
:1008B000882309F496CF8F91805D8D930A95D9F79F
:1008C00092CF0065CD1D80B2E60E40597307A0ACF3
:1008D000B90350D6DC01286BEE0094357700CA9A34
:1008E0003B0065CD1D00B2E60E0059730700ACB9A0
:1008F0000300D6DC01006BEE0000357700009A3B68
:100900000000CD1D0000E60E000073070000B903D3
:100910000000DC010000EE000000770000003B005A
:100920000000F694E794D79447950A95D1F7089577
:1009300000270DD08F9303958F2D8E298D29842B21
:10094000C1F78F91805D8D930A95D9F74CCF1F9396
:100950000F93002710E2440FDD1CEE1CFF1C001F4C
:10096000802F9AE0890B10F0082F43951A9599F77C
:10097000802F0F911F910895019111912191308144
:100980000895C89531960020089599278D919395E3
:100990008823E1F7939511968C9311978E919A95F0
:1009A000D1F70895EA2FFB2F00244C918D910394E9
:1009B0008E32E1F711248D9113948823E1F71A9474
:1009C000101640F41197202F2119239580E38D9361
:1009D0002A95E9F7113039F59927AE2FBF2FA00DD1
:1009E000B91FA00FB91F8C919C93853308F421C0C7
:1009F00031E08E918E32E9F38D3241F0830F8A33EC
:100A000019F480E331E001C033278C93AE1789F7E6
:100A1000332341F0AE2FBF2FB8DF81E34D3209F40D
:100A20003196808308958827E00DF81FE00FF81FA6
:100A300080830895000F111F221F331F0895009512
:100A40001095209530950F5F1F4F2F4F3F4F089502
:100A5000019110810FC00E94BC040EC00E94BC0412
:100A600010C00191108117FF05C03FEF2FEF04C0A8
:100A7000008111272227332737FF03C0E0DF8DE2F3
:100A80008D93CF92DF92EF92AA24BB24CC24DD2455
:100A9000EE2440E2EAE0FF2755E093E38081890FEE
:100AA00087FD9F7083FD907F891B81935A95A9F7DD
:100AB000C1DFAA1CBB1CCC1CDD1CEE1C4A9551F7E7
:100AC000E894EFE0FF2782910BD0EB30E0F71EF0C7
:100AD00068948A2D09D04D93EF90DF90CF900895C0
:100AE000982F829501D0892F8F70805D26F08033FA
:100AF00009F4089568948D93089581918D938823C6
:100B0000E1F7089594E081918D939A95E1F7089526
:100B1000B7FE089590E8B91611F4D0FE08959FEF3E
:100B2000D91AE90AF90A09F403950895D190E190D8
:100B3000F190019108952191319141915191089540
:100B4000502F2D2D3E2D4F2D612F0895D094E094E0
:100B5000F09491E0D90E9927E91EF91E1095089599
:100B6000652F90E8440F551F5927990F47956078D6
:100B7000102F90E8FF0C001F0927990FF7941078A9
:100B800000380895FF0C90E89027110F9795F7947F
:100B9000092F08951127BD2CDE2CEF2CF02E0EE12D
:100BA000FF2039F4FE2CED2CDB2CBB240850C2F7BF
:100BB00010C032F00A95BB0CDD1CEE1CFF1CF9CFF7
:100BC000A7DFE0CF9FE7092FF92A9FEFD92EE92E63
:100BD0000895DD24EE24FF240027112708950FE750
:100BE0009FEFF2CFBDDFD9F05038C9F0162700587B
:100BF000952F90580894091F12F418F40EC008F0AD
:100C00000EC00FD0FF202AF0BB0CDD1CEE1CFF1C19
:100C100002C0039513F07CDFB5CF0C94E2050C9471
:100C2000E9059F92FF92EF928D2DFF24EE24DD24A3
:100C3000BB2493E0849F1001829FB00CD11CE21C66
:100C4000F31C839FD00CE11C2224F21C9A9531F0F6
:100C5000BD2CDE2CEF2CFF248F91ECCF9F900895BC
:100C60006ADF7EDF503829F090E869270CC00AF06F
:100C700045D088CF5FE322273327442701C05BDFBD
:100C80006FDF5038B1F3003899F3902F951B8BF339
:100C900012F434D0FACF983118F0222733274427A2
:100CA000983028F0232F342F44279850F9CF9923D8
:100CB00029F04695379527959A95D9F7912F96273C
:100CC00042F014D0B0F6F794E794D7940F5F8BF608
:100CD00079CF10D051F008F439DFFF2052F2DD0C4B
:100CE000EE1CFF1C0150CBF76DCF73CFD20EE31E6D
:100CF000F41E0895D21AE30AF40A0895DF92EF92DF
:100D0000FF920F931F93D22EE32EF42E052F162F52
:100D10006F915F914F913F912F9108950E94C1046F
:100D2000D02C0E94C104E02C0E94C104F02C0E942F
:100D3000C104002D08950E94C104202D0E94C10409
:100D4000302D0E94C104402D0E94C104502D0895F1
:100D5000F624D6B5BD52163DC5FE02400AD7233C47
:100D600066662042537461747573205265676973B7
:100D70007465723D0000436865636B73756D3D007B
:100D800052483A2000002520200054656D703A201A
:060D9000000043202000DA
:00000001FF
